{
  "contracts/YourContract.sol": {
    "PTBallot": {
      "abi": [
        {
          "inputs": [
            {
              "internalType": "bytes32[]",
              "name": "candidateNames",
              "type": "bytes32[]"
            },
            {
              "internalType": "bytes32[]",
              "name": "candidateParties",
              "type": "bytes32[]"
            },
            {
              "internalType": "address",
              "name": "chairAddress",
              "type": "address"
            },
            {
              "internalType": "uint8",
              "name": "amountOfDays",
              "type": "uint8"
            }
          ],
          "stateMutability": "nonpayable",
          "type": "constructor"
        },
        {
          "inputs": [],
          "name": "ballotEndDate",
          "outputs": [
            {
              "internalType": "uint256",
              "name": "endDate_",
              "type": "uint256"
            }
          ],
          "stateMutability": "view",
          "type": "function"
        },
        {
          "inputs": [
            {
              "internalType": "uint256",
              "name": "",
              "type": "uint256"
            }
          ],
          "name": "candidates",
          "outputs": [
            {
              "internalType": "bytes32",
              "name": "name",
              "type": "bytes32"
            },
            {
              "internalType": "bytes32",
              "name": "party",
              "type": "bytes32"
            },
            {
              "internalType": "uint256",
              "name": "voteCount",
              "type": "uint256"
            }
          ],
          "stateMutability": "view",
          "type": "function"
        },
        {
          "inputs": [],
          "name": "chairperson",
          "outputs": [
            {
              "internalType": "address",
              "name": "",
              "type": "address"
            }
          ],
          "stateMutability": "view",
          "type": "function"
        },
        {
          "inputs": [
            {
              "internalType": "address",
              "name": "to",
              "type": "address"
            }
          ],
          "name": "delegate",
          "outputs": [],
          "stateMutability": "nonpayable",
          "type": "function"
        },
        {
          "inputs": [],
          "name": "expirationDate",
          "outputs": [
            {
              "internalType": "uint256",
              "name": "",
              "type": "uint256"
            }
          ],
          "stateMutability": "view",
          "type": "function"
        },
        {
          "inputs": [
            {
              "internalType": "address",
              "name": "voter",
              "type": "address"
            }
          ],
          "name": "giveRightToVote",
          "outputs": [],
          "stateMutability": "nonpayable",
          "type": "function"
        },
        {
          "inputs": [
            {
              "internalType": "uint256",
              "name": "candidate",
              "type": "uint256"
            }
          ],
          "name": "vote",
          "outputs": [],
          "stateMutability": "nonpayable",
          "type": "function"
        },
        {
          "inputs": [],
          "name": "winnerDetails",
          "outputs": [
            {
              "internalType": "bytes32",
              "name": "winnerName_",
              "type": "bytes32"
            },
            {
              "internalType": "bytes32",
              "name": "winnerParty_",
              "type": "bytes32"
            }
          ],
          "stateMutability": "view",
          "type": "function"
        },
        {
          "inputs": [],
          "name": "winningCandidate",
          "outputs": [
            {
              "internalType": "uint256",
              "name": "winningCandidate_",
              "type": "uint256"
            }
          ],
          "stateMutability": "view",
          "type": "function"
        }
      ],
      "devdoc": {
        "details": "Implements publically viewable party designation and time limitation to the standard delegate voting contract",
        "kind": "dev",
        "methods": {
          "ballotEndDate()": {
            "details": "Gets the time left for a ballot by subtracting the expiration date from the current date.",
            "returns": {
              "endDate_": "the time left, in days, before the ballot expires"
            }
          },
          "constructor": {
            "details": "Create a new ballot to choose one of 'candidateNames'.Limits amountOfDays to uint8 (0-255) to limit the max ballot timelength.",
            "params": {
              "amountOfDays": "number of days ballot is open",
              "candidateNames": "names of candidates",
              "candidateParties": "names of parties"
            }
          },
          "delegate(address)": {
            "details": "Delegate your vote to the voter 'to'.",
            "params": {
              "to": "address to which vote is delegated"
            }
          },
          "giveRightToVote(address)": {
            "details": "Give 'voter' the right to vote on this ballot. May only be called by 'chairperson'.",
            "params": {
              "voter": "address of voter"
            }
          },
          "vote(uint256)": {
            "details": "Give your vote (including votes delegated to you) to candidate 'candidates[candidate].name'.",
            "params": {
              "candidate": "index of candidate in the candidates array"
            }
          },
          "winnerDetails()": {
            "details": "Calls winningCandidate() function to get the index of the winner contained in the candidates array and then",
            "returns": {
              "winnerName_": "the name of the winner",
              "winnerParty_": "the party of the winner"
            }
          },
          "winningCandidate()": {
            "details": "Computes the winning candidate taking all previous votes into account.",
            "returns": {
              "winningCandidate_": "index of winning candidate in the candidates array"
            }
          }
        },
        "title": "PTBallot",
        "version": 1
      },
      "evm": {
        "bytecode": {
          "linkReferences": {},
          "object": "60806040523480156200001157600080fd5b5060405162000b5e38038062000b5e833981016040819052620000349162000218565b82518451146200004357600080fd5b60ff81166200005157600080fd5b600080546001600160a01b0319166001600160a01b03841690811782558152600260205260409020600190556200008f60ff821662015180620002d4565b620000a09062ffffff1642620002b9565b60015560005b8451811015620001665760036040518060600160405280878481518110620000de57634e487b7160e01b600052603260045260246000fd5b602002602001015181526020018684815181106200010c57634e487b7160e01b600052603260045260246000fd5b602090810291909101810151825260009181018290528354600181810186559483529181902083516003909302019182558201519281019290925560400151600290910155806200015d8162000302565b915050620000a6565b50505050506200034c565b600082601f83011262000182578081fd5b815160206001600160401b0380831115620001a157620001a162000336565b8260051b604051601f19603f83011681018181108482111715620001c957620001c962000336565b60405284815283810192508684018288018501891015620001e8578687fd5b8692505b858310156200020c578051845292840192600192909201918401620001ec565b50979650505050505050565b600080600080608085870312156200022e578384fd5b84516001600160401b038082111562000245578586fd5b620002538883890162000171565b9550602087015191508082111562000269578485fd5b50620002788782880162000171565b604087015190945090506001600160a01b038116811462000297578283fd5b606086015190925060ff81168114620002ae578182fd5b939692955090935050565b60008219821115620002cf57620002cf62000320565b500190565b600062ffffff80831681851681830481118215151615620002f957620002f962000320565b02949350505050565b600060001982141562000319576200031962000320565b5060010190565b634e487b7160e01b600052601160045260246000fd5b634e487b7160e01b600052604160045260246000fd5b610802806200035c6000396000f3fe608060405234801561001057600080fd5b50600436106100935760003560e01c80638733902011610066578063873390201461011e5780638f620487146101345780639e7b8d611461013d578063d28178d714610150578063ed8bddeb1461015857600080fd5b80630121b93f146100985780632e4176cf146100ad5780633477ee2e146100dd5780635c19a95c1461010b575b600080fd5b6100ab6100a6366004610754565b610175565b005b6000546100c0906001600160a01b031681565b6040516001600160a01b0390911681526020015b60405180910390f35b6100f06100eb366004610754565b610286565b604080519384526020840192909252908201526060016100d4565b6100ab610119366004610726565b6102b9565b6101266104d4565b6040519081526020016100d4565b61012660015481565b6100ab61014b366004610726565b6104e9565b61012661060e565b6101606106a7565b604080519283526020830191909152016100d4565b600154421061018357600080fd5b33600090815260026020526040902080546101dc5760405162461bcd60e51b8152602060048201526014602482015273486173206e6f20726967687420746f20766f746560601b60448201526064015b60405180910390fd5b600181015460ff16156102225760405162461bcd60e51b815260206004820152600e60248201526d20b63932b0b23c903b37ba32b21760911b60448201526064016101d3565b6001818101805460ff19169091179055600281018290558054600380548490811061025d57634e487b7160e01b600052603260045260246000fd5b9060005260206000209060030201600201600082825461027d919061076c565b90915550505050565b6003818154811061029657600080fd5b600091825260209091206003909102018054600182015460029092015490925083565b60015442106102c757600080fd5b336000908152600260205260409020600181015460ff16156103205760405162461bcd60e51b81526020600482015260126024820152712cb7ba9030b63932b0b23c903b37ba32b21760711b60448201526064016101d3565b6001600160a01b0382163314156103795760405162461bcd60e51b815260206004820152601e60248201527f53656c662d64656c65676174696f6e20697320646973616c6c6f7765642e000060448201526064016101d3565b6001600160a01b038281166000908152600260205260409020600101546101009004161561041c576001600160a01b03918216600090815260026020526040902060010154610100900490911690338214156104175760405162461bcd60e51b815260206004820152601960248201527f466f756e64206c6f6f7020696e2064656c65676174696f6e2e0000000000000060448201526064016101d3565b610379565b600181810180546001600160a81b0319166101006001600160a01b03861690810291909117831790915560009081526002602052604090209081015460ff16156104b5578160000154600382600201548154811061048a57634e487b7160e01b600052603260045260246000fd5b906000526020600020906003020160020160008282546104aa919061076c565b909155506104cf9050565b8154815482906000906104c990849061076c565b90915550505b505050565b6000426001546104e49190610784565b905090565b60015442106104f757600080fd5b6000546001600160a01b031633146105625760405162461bcd60e51b815260206004820152602860248201527f4f6e6c79206368616972706572736f6e2063616e2067697665207269676874206044820152673a37903b37ba329760c11b60648201526084016101d3565b6001600160a01b03811660009081526002602052604090206001015460ff16156105ce5760405162461bcd60e51b815260206004820152601860248201527f54686520766f74657220616c726561647920766f7465642e000000000000000060448201526064016101d3565b6001600160a01b038116600090815260026020526040902054156105f157600080fd5b6001600160a01b0316600090815260026020526040902060019055565b600080805b6003548110156106a257816003828154811061063f57634e487b7160e01b600052603260045260246000fd5b9060005260206000209060030201600201541115610690576003818154811061067857634e487b7160e01b600052603260045260246000fd5b90600052602060002090600302016002015491508092505b8061069a8161079b565b915050610613565b505090565b60008060036106b461060e565b815481106106d257634e487b7160e01b600052603260045260246000fd5b906000526020600020906003020160000154915060036106f061060e565b8154811061070e57634e487b7160e01b600052603260045260246000fd5b90600052602060002090600302016001015490509091565b600060208284031215610737578081fd5b81356001600160a01b038116811461074d578182fd5b9392505050565b600060208284031215610765578081fd5b5035919050565b6000821982111561077f5761077f6107b6565b500190565b600082821015610796576107966107b6565b500390565b60006000198214156107af576107af6107b6565b5060010190565b634e487b7160e01b600052601160045260246000fdfea264697066735822122017325b6f2ab3429d0be66068daf38fbcdb306cef2f81eb9e28766e1c778f1ee464736f6c63430008040033",
          "opcodes": "PUSH1 0x80 PUSH1 0x40 MSTORE CALLVALUE DUP1 ISZERO PUSH3 0x11 JUMPI PUSH1 0x0 DUP1 REVERT JUMPDEST POP PUSH1 0x40 MLOAD PUSH3 0xB5E CODESIZE SUB DUP1 PUSH3 0xB5E DUP4 CODECOPY DUP2 ADD PUSH1 0x40 DUP2 SWAP1 MSTORE PUSH3 0x34 SWAP2 PUSH3 0x218 JUMP JUMPDEST DUP3 MLOAD DUP5 MLOAD EQ PUSH3 0x43 JUMPI PUSH1 0x0 DUP1 REVERT JUMPDEST PUSH1 0xFF DUP2 AND PUSH3 0x51 JUMPI PUSH1 0x0 DUP1 REVERT JUMPDEST PUSH1 0x0 DUP1 SLOAD PUSH1 0x1 PUSH1 0x1 PUSH1 0xA0 SHL SUB NOT AND PUSH1 0x1 PUSH1 0x1 PUSH1 0xA0 SHL SUB DUP5 AND SWAP1 DUP2 OR DUP3 SSTORE DUP2 MSTORE PUSH1 0x2 PUSH1 0x20 MSTORE PUSH1 0x40 SWAP1 KECCAK256 PUSH1 0x1 SWAP1 SSTORE PUSH3 0x8F PUSH1 0xFF DUP3 AND PUSH3 0x15180 PUSH3 0x2D4 JUMP JUMPDEST PUSH3 0xA0 SWAP1 PUSH3 0xFFFFFF AND TIMESTAMP PUSH3 0x2B9 JUMP JUMPDEST PUSH1 0x1 SSTORE PUSH1 0x0 JUMPDEST DUP5 MLOAD DUP2 LT ISZERO PUSH3 0x166 JUMPI PUSH1 0x3 PUSH1 0x40 MLOAD DUP1 PUSH1 0x60 ADD PUSH1 0x40 MSTORE DUP1 DUP8 DUP5 DUP2 MLOAD DUP2 LT PUSH3 0xDE JUMPI PUSH4 0x4E487B71 PUSH1 0xE0 SHL PUSH1 0x0 MSTORE PUSH1 0x32 PUSH1 0x4 MSTORE PUSH1 0x24 PUSH1 0x0 REVERT JUMPDEST PUSH1 0x20 MUL PUSH1 0x20 ADD ADD MLOAD DUP2 MSTORE PUSH1 0x20 ADD DUP7 DUP5 DUP2 MLOAD DUP2 LT PUSH3 0x10C JUMPI PUSH4 0x4E487B71 PUSH1 0xE0 SHL PUSH1 0x0 MSTORE PUSH1 0x32 PUSH1 0x4 MSTORE PUSH1 0x24 PUSH1 0x0 REVERT JUMPDEST PUSH1 0x20 SWAP1 DUP2 MUL SWAP2 SWAP1 SWAP2 ADD DUP2 ADD MLOAD DUP3 MSTORE PUSH1 0x0 SWAP2 DUP2 ADD DUP3 SWAP1 MSTORE DUP4 SLOAD PUSH1 0x1 DUP2 DUP2 ADD DUP7 SSTORE SWAP5 DUP4 MSTORE SWAP2 DUP2 SWAP1 KECCAK256 DUP4 MLOAD PUSH1 0x3 SWAP1 SWAP4 MUL ADD SWAP2 DUP3 SSTORE DUP3 ADD MLOAD SWAP3 DUP2 ADD SWAP3 SWAP1 SWAP3 SSTORE PUSH1 0x40 ADD MLOAD PUSH1 0x2 SWAP1 SWAP2 ADD SSTORE DUP1 PUSH3 0x15D DUP2 PUSH3 0x302 JUMP JUMPDEST SWAP2 POP POP PUSH3 0xA6 JUMP JUMPDEST POP POP POP POP POP PUSH3 0x34C JUMP JUMPDEST PUSH1 0x0 DUP3 PUSH1 0x1F DUP4 ADD SLT PUSH3 0x182 JUMPI DUP1 DUP2 REVERT JUMPDEST DUP2 MLOAD PUSH1 0x20 PUSH1 0x1 PUSH1 0x1 PUSH1 0x40 SHL SUB DUP1 DUP4 GT ISZERO PUSH3 0x1A1 JUMPI PUSH3 0x1A1 PUSH3 0x336 JUMP JUMPDEST DUP3 PUSH1 0x5 SHL PUSH1 0x40 MLOAD PUSH1 0x1F NOT PUSH1 0x3F DUP4 ADD AND DUP2 ADD DUP2 DUP2 LT DUP5 DUP3 GT OR ISZERO PUSH3 0x1C9 JUMPI PUSH3 0x1C9 PUSH3 0x336 JUMP JUMPDEST PUSH1 0x40 MSTORE DUP5 DUP2 MSTORE DUP4 DUP2 ADD SWAP3 POP DUP7 DUP5 ADD DUP3 DUP9 ADD DUP6 ADD DUP10 LT ISZERO PUSH3 0x1E8 JUMPI DUP7 DUP8 REVERT JUMPDEST DUP7 SWAP3 POP JUMPDEST DUP6 DUP4 LT ISZERO PUSH3 0x20C JUMPI DUP1 MLOAD DUP5 MSTORE SWAP3 DUP5 ADD SWAP3 PUSH1 0x1 SWAP3 SWAP1 SWAP3 ADD SWAP2 DUP5 ADD PUSH3 0x1EC JUMP JUMPDEST POP SWAP8 SWAP7 POP POP POP POP POP POP POP JUMP JUMPDEST PUSH1 0x0 DUP1 PUSH1 0x0 DUP1 PUSH1 0x80 DUP6 DUP8 SUB SLT ISZERO PUSH3 0x22E JUMPI DUP4 DUP5 REVERT JUMPDEST DUP5 MLOAD PUSH1 0x1 PUSH1 0x1 PUSH1 0x40 SHL SUB DUP1 DUP3 GT ISZERO PUSH3 0x245 JUMPI DUP6 DUP7 REVERT JUMPDEST PUSH3 0x253 DUP9 DUP4 DUP10 ADD PUSH3 0x171 JUMP JUMPDEST SWAP6 POP PUSH1 0x20 DUP8 ADD MLOAD SWAP2 POP DUP1 DUP3 GT ISZERO PUSH3 0x269 JUMPI DUP5 DUP6 REVERT JUMPDEST POP PUSH3 0x278 DUP8 DUP3 DUP9 ADD PUSH3 0x171 JUMP JUMPDEST PUSH1 0x40 DUP8 ADD MLOAD SWAP1 SWAP5 POP SWAP1 POP PUSH1 0x1 PUSH1 0x1 PUSH1 0xA0 SHL SUB DUP2 AND DUP2 EQ PUSH3 0x297 JUMPI DUP3 DUP4 REVERT JUMPDEST PUSH1 0x60 DUP7 ADD MLOAD SWAP1 SWAP3 POP PUSH1 0xFF DUP2 AND DUP2 EQ PUSH3 0x2AE JUMPI DUP2 DUP3 REVERT JUMPDEST SWAP4 SWAP7 SWAP3 SWAP6 POP SWAP1 SWAP4 POP POP JUMP JUMPDEST PUSH1 0x0 DUP3 NOT DUP3 GT ISZERO PUSH3 0x2CF JUMPI PUSH3 0x2CF PUSH3 0x320 JUMP JUMPDEST POP ADD SWAP1 JUMP JUMPDEST PUSH1 0x0 PUSH3 0xFFFFFF DUP1 DUP4 AND DUP2 DUP6 AND DUP2 DUP4 DIV DUP2 GT DUP3 ISZERO ISZERO AND ISZERO PUSH3 0x2F9 JUMPI PUSH3 0x2F9 PUSH3 0x320 JUMP JUMPDEST MUL SWAP5 SWAP4 POP POP POP POP JUMP JUMPDEST PUSH1 0x0 PUSH1 0x0 NOT DUP3 EQ ISZERO PUSH3 0x319 JUMPI PUSH3 0x319 PUSH3 0x320 JUMP JUMPDEST POP PUSH1 0x1 ADD SWAP1 JUMP JUMPDEST PUSH4 0x4E487B71 PUSH1 0xE0 SHL PUSH1 0x0 MSTORE PUSH1 0x11 PUSH1 0x4 MSTORE PUSH1 0x24 PUSH1 0x0 REVERT JUMPDEST PUSH4 0x4E487B71 PUSH1 0xE0 SHL PUSH1 0x0 MSTORE PUSH1 0x41 PUSH1 0x4 MSTORE PUSH1 0x24 PUSH1 0x0 REVERT JUMPDEST PUSH2 0x802 DUP1 PUSH3 0x35C PUSH1 0x0 CODECOPY PUSH1 0x0 RETURN INVALID PUSH1 0x80 PUSH1 0x40 MSTORE CALLVALUE DUP1 ISZERO PUSH2 0x10 JUMPI PUSH1 0x0 DUP1 REVERT JUMPDEST POP PUSH1 0x4 CALLDATASIZE LT PUSH2 0x93 JUMPI PUSH1 0x0 CALLDATALOAD PUSH1 0xE0 SHR DUP1 PUSH4 0x87339020 GT PUSH2 0x66 JUMPI DUP1 PUSH4 0x87339020 EQ PUSH2 0x11E JUMPI DUP1 PUSH4 0x8F620487 EQ PUSH2 0x134 JUMPI DUP1 PUSH4 0x9E7B8D61 EQ PUSH2 0x13D JUMPI DUP1 PUSH4 0xD28178D7 EQ PUSH2 0x150 JUMPI DUP1 PUSH4 0xED8BDDEB EQ PUSH2 0x158 JUMPI PUSH1 0x0 DUP1 REVERT JUMPDEST DUP1 PUSH4 0x121B93F EQ PUSH2 0x98 JUMPI DUP1 PUSH4 0x2E4176CF EQ PUSH2 0xAD JUMPI DUP1 PUSH4 0x3477EE2E EQ PUSH2 0xDD JUMPI DUP1 PUSH4 0x5C19A95C EQ PUSH2 0x10B JUMPI JUMPDEST PUSH1 0x0 DUP1 REVERT JUMPDEST PUSH2 0xAB PUSH2 0xA6 CALLDATASIZE PUSH1 0x4 PUSH2 0x754 JUMP JUMPDEST PUSH2 0x175 JUMP JUMPDEST STOP JUMPDEST PUSH1 0x0 SLOAD PUSH2 0xC0 SWAP1 PUSH1 0x1 PUSH1 0x1 PUSH1 0xA0 SHL SUB AND DUP2 JUMP JUMPDEST PUSH1 0x40 MLOAD PUSH1 0x1 PUSH1 0x1 PUSH1 0xA0 SHL SUB SWAP1 SWAP2 AND DUP2 MSTORE PUSH1 0x20 ADD JUMPDEST PUSH1 0x40 MLOAD DUP1 SWAP2 SUB SWAP1 RETURN JUMPDEST PUSH2 0xF0 PUSH2 0xEB CALLDATASIZE PUSH1 0x4 PUSH2 0x754 JUMP JUMPDEST PUSH2 0x286 JUMP JUMPDEST PUSH1 0x40 DUP1 MLOAD SWAP4 DUP5 MSTORE PUSH1 0x20 DUP5 ADD SWAP3 SWAP1 SWAP3 MSTORE SWAP1 DUP3 ADD MSTORE PUSH1 0x60 ADD PUSH2 0xD4 JUMP JUMPDEST PUSH2 0xAB PUSH2 0x119 CALLDATASIZE PUSH1 0x4 PUSH2 0x726 JUMP JUMPDEST PUSH2 0x2B9 JUMP JUMPDEST PUSH2 0x126 PUSH2 0x4D4 JUMP JUMPDEST PUSH1 0x40 MLOAD SWAP1 DUP2 MSTORE PUSH1 0x20 ADD PUSH2 0xD4 JUMP JUMPDEST PUSH2 0x126 PUSH1 0x1 SLOAD DUP2 JUMP JUMPDEST PUSH2 0xAB PUSH2 0x14B CALLDATASIZE PUSH1 0x4 PUSH2 0x726 JUMP JUMPDEST PUSH2 0x4E9 JUMP JUMPDEST PUSH2 0x126 PUSH2 0x60E JUMP JUMPDEST PUSH2 0x160 PUSH2 0x6A7 JUMP JUMPDEST PUSH1 0x40 DUP1 MLOAD SWAP3 DUP4 MSTORE PUSH1 0x20 DUP4 ADD SWAP2 SWAP1 SWAP2 MSTORE ADD PUSH2 0xD4 JUMP JUMPDEST PUSH1 0x1 SLOAD TIMESTAMP LT PUSH2 0x183 JUMPI PUSH1 0x0 DUP1 REVERT JUMPDEST CALLER PUSH1 0x0 SWAP1 DUP2 MSTORE PUSH1 0x2 PUSH1 0x20 MSTORE PUSH1 0x40 SWAP1 KECCAK256 DUP1 SLOAD PUSH2 0x1DC JUMPI PUSH1 0x40 MLOAD PUSH3 0x461BCD PUSH1 0xE5 SHL DUP2 MSTORE PUSH1 0x20 PUSH1 0x4 DUP3 ADD MSTORE PUSH1 0x14 PUSH1 0x24 DUP3 ADD MSTORE PUSH20 0x486173206E6F20726967687420746F20766F7465 PUSH1 0x60 SHL PUSH1 0x44 DUP3 ADD MSTORE PUSH1 0x64 ADD JUMPDEST PUSH1 0x40 MLOAD DUP1 SWAP2 SUB SWAP1 REVERT JUMPDEST PUSH1 0x1 DUP2 ADD SLOAD PUSH1 0xFF AND ISZERO PUSH2 0x222 JUMPI PUSH1 0x40 MLOAD PUSH3 0x461BCD PUSH1 0xE5 SHL DUP2 MSTORE PUSH1 0x20 PUSH1 0x4 DUP3 ADD MSTORE PUSH1 0xE PUSH1 0x24 DUP3 ADD MSTORE PUSH14 0x20B63932B0B23C903B37BA32B217 PUSH1 0x91 SHL PUSH1 0x44 DUP3 ADD MSTORE PUSH1 0x64 ADD PUSH2 0x1D3 JUMP JUMPDEST PUSH1 0x1 DUP2 DUP2 ADD DUP1 SLOAD PUSH1 0xFF NOT AND SWAP1 SWAP2 OR SWAP1 SSTORE PUSH1 0x2 DUP2 ADD DUP3 SWAP1 SSTORE DUP1 SLOAD PUSH1 0x3 DUP1 SLOAD DUP5 SWAP1 DUP2 LT PUSH2 0x25D JUMPI PUSH4 0x4E487B71 PUSH1 0xE0 SHL PUSH1 0x0 MSTORE PUSH1 0x32 PUSH1 0x4 MSTORE PUSH1 0x24 PUSH1 0x0 REVERT JUMPDEST SWAP1 PUSH1 0x0 MSTORE PUSH1 0x20 PUSH1 0x0 KECCAK256 SWAP1 PUSH1 0x3 MUL ADD PUSH1 0x2 ADD PUSH1 0x0 DUP3 DUP3 SLOAD PUSH2 0x27D SWAP2 SWAP1 PUSH2 0x76C JUMP JUMPDEST SWAP1 SWAP2 SSTORE POP POP POP POP JUMP JUMPDEST PUSH1 0x3 DUP2 DUP2 SLOAD DUP2 LT PUSH2 0x296 JUMPI PUSH1 0x0 DUP1 REVERT JUMPDEST PUSH1 0x0 SWAP2 DUP3 MSTORE PUSH1 0x20 SWAP1 SWAP2 KECCAK256 PUSH1 0x3 SWAP1 SWAP2 MUL ADD DUP1 SLOAD PUSH1 0x1 DUP3 ADD SLOAD PUSH1 0x2 SWAP1 SWAP3 ADD SLOAD SWAP1 SWAP3 POP DUP4 JUMP JUMPDEST PUSH1 0x1 SLOAD TIMESTAMP LT PUSH2 0x2C7 JUMPI PUSH1 0x0 DUP1 REVERT JUMPDEST CALLER PUSH1 0x0 SWAP1 DUP2 MSTORE PUSH1 0x2 PUSH1 0x20 MSTORE PUSH1 0x40 SWAP1 KECCAK256 PUSH1 0x1 DUP2 ADD SLOAD PUSH1 0xFF AND ISZERO PUSH2 0x320 JUMPI PUSH1 0x40 MLOAD PUSH3 0x461BCD PUSH1 0xE5 SHL DUP2 MSTORE PUSH1 0x20 PUSH1 0x4 DUP3 ADD MSTORE PUSH1 0x12 PUSH1 0x24 DUP3 ADD MSTORE PUSH18 0x2CB7BA9030B63932B0B23C903B37BA32B217 PUSH1 0x71 SHL PUSH1 0x44 DUP3 ADD MSTORE PUSH1 0x64 ADD PUSH2 0x1D3 JUMP JUMPDEST PUSH1 0x1 PUSH1 0x1 PUSH1 0xA0 SHL SUB DUP3 AND CALLER EQ ISZERO PUSH2 0x379 JUMPI PUSH1 0x40 MLOAD PUSH3 0x461BCD PUSH1 0xE5 SHL DUP2 MSTORE PUSH1 0x20 PUSH1 0x4 DUP3 ADD MSTORE PUSH1 0x1E PUSH1 0x24 DUP3 ADD MSTORE PUSH32 0x53656C662D64656C65676174696F6E20697320646973616C6C6F7765642E0000 PUSH1 0x44 DUP3 ADD MSTORE PUSH1 0x64 ADD PUSH2 0x1D3 JUMP JUMPDEST PUSH1 0x1 PUSH1 0x1 PUSH1 0xA0 SHL SUB DUP3 DUP2 AND PUSH1 0x0 SWAP1 DUP2 MSTORE PUSH1 0x2 PUSH1 0x20 MSTORE PUSH1 0x40 SWAP1 KECCAK256 PUSH1 0x1 ADD SLOAD PUSH2 0x100 SWAP1 DIV AND ISZERO PUSH2 0x41C JUMPI PUSH1 0x1 PUSH1 0x1 PUSH1 0xA0 SHL SUB SWAP2 DUP3 AND PUSH1 0x0 SWAP1 DUP2 MSTORE PUSH1 0x2 PUSH1 0x20 MSTORE PUSH1 0x40 SWAP1 KECCAK256 PUSH1 0x1 ADD SLOAD PUSH2 0x100 SWAP1 DIV SWAP1 SWAP2 AND SWAP1 CALLER DUP3 EQ ISZERO PUSH2 0x417 JUMPI PUSH1 0x40 MLOAD PUSH3 0x461BCD PUSH1 0xE5 SHL DUP2 MSTORE PUSH1 0x20 PUSH1 0x4 DUP3 ADD MSTORE PUSH1 0x19 PUSH1 0x24 DUP3 ADD MSTORE PUSH32 0x466F756E64206C6F6F7020696E2064656C65676174696F6E2E00000000000000 PUSH1 0x44 DUP3 ADD MSTORE PUSH1 0x64 ADD PUSH2 0x1D3 JUMP JUMPDEST PUSH2 0x379 JUMP JUMPDEST PUSH1 0x1 DUP2 DUP2 ADD DUP1 SLOAD PUSH1 0x1 PUSH1 0x1 PUSH1 0xA8 SHL SUB NOT AND PUSH2 0x100 PUSH1 0x1 PUSH1 0x1 PUSH1 0xA0 SHL SUB DUP7 AND SWAP1 DUP2 MUL SWAP2 SWAP1 SWAP2 OR DUP4 OR SWAP1 SWAP2 SSTORE PUSH1 0x0 SWAP1 DUP2 MSTORE PUSH1 0x2 PUSH1 0x20 MSTORE PUSH1 0x40 SWAP1 KECCAK256 SWAP1 DUP2 ADD SLOAD PUSH1 0xFF AND ISZERO PUSH2 0x4B5 JUMPI DUP2 PUSH1 0x0 ADD SLOAD PUSH1 0x3 DUP3 PUSH1 0x2 ADD SLOAD DUP2 SLOAD DUP2 LT PUSH2 0x48A JUMPI PUSH4 0x4E487B71 PUSH1 0xE0 SHL PUSH1 0x0 MSTORE PUSH1 0x32 PUSH1 0x4 MSTORE PUSH1 0x24 PUSH1 0x0 REVERT JUMPDEST SWAP1 PUSH1 0x0 MSTORE PUSH1 0x20 PUSH1 0x0 KECCAK256 SWAP1 PUSH1 0x3 MUL ADD PUSH1 0x2 ADD PUSH1 0x0 DUP3 DUP3 SLOAD PUSH2 0x4AA SWAP2 SWAP1 PUSH2 0x76C JUMP JUMPDEST SWAP1 SWAP2 SSTORE POP PUSH2 0x4CF SWAP1 POP JUMP JUMPDEST DUP2 SLOAD DUP2 SLOAD DUP3 SWAP1 PUSH1 0x0 SWAP1 PUSH2 0x4C9 SWAP1 DUP5 SWAP1 PUSH2 0x76C JUMP JUMPDEST SWAP1 SWAP2 SSTORE POP POP JUMPDEST POP POP POP JUMP JUMPDEST PUSH1 0x0 TIMESTAMP PUSH1 0x1 SLOAD PUSH2 0x4E4 SWAP2 SWAP1 PUSH2 0x784 JUMP JUMPDEST SWAP1 POP SWAP1 JUMP JUMPDEST PUSH1 0x1 SLOAD TIMESTAMP LT PUSH2 0x4F7 JUMPI PUSH1 0x0 DUP1 REVERT JUMPDEST PUSH1 0x0 SLOAD PUSH1 0x1 PUSH1 0x1 PUSH1 0xA0 SHL SUB AND CALLER EQ PUSH2 0x562 JUMPI PUSH1 0x40 MLOAD PUSH3 0x461BCD PUSH1 0xE5 SHL DUP2 MSTORE PUSH1 0x20 PUSH1 0x4 DUP3 ADD MSTORE PUSH1 0x28 PUSH1 0x24 DUP3 ADD MSTORE PUSH32 0x4F6E6C79206368616972706572736F6E2063616E206769766520726967687420 PUSH1 0x44 DUP3 ADD MSTORE PUSH8 0x3A37903B37BA3297 PUSH1 0xC1 SHL PUSH1 0x64 DUP3 ADD MSTORE PUSH1 0x84 ADD PUSH2 0x1D3 JUMP JUMPDEST PUSH1 0x1 PUSH1 0x1 PUSH1 0xA0 SHL SUB DUP2 AND PUSH1 0x0 SWAP1 DUP2 MSTORE PUSH1 0x2 PUSH1 0x20 MSTORE PUSH1 0x40 SWAP1 KECCAK256 PUSH1 0x1 ADD SLOAD PUSH1 0xFF AND ISZERO PUSH2 0x5CE JUMPI PUSH1 0x40 MLOAD PUSH3 0x461BCD PUSH1 0xE5 SHL DUP2 MSTORE PUSH1 0x20 PUSH1 0x4 DUP3 ADD MSTORE PUSH1 0x18 PUSH1 0x24 DUP3 ADD MSTORE PUSH32 0x54686520766F74657220616C726561647920766F7465642E0000000000000000 PUSH1 0x44 DUP3 ADD MSTORE PUSH1 0x64 ADD PUSH2 0x1D3 JUMP JUMPDEST PUSH1 0x1 PUSH1 0x1 PUSH1 0xA0 SHL SUB DUP2 AND PUSH1 0x0 SWAP1 DUP2 MSTORE PUSH1 0x2 PUSH1 0x20 MSTORE PUSH1 0x40 SWAP1 KECCAK256 SLOAD ISZERO PUSH2 0x5F1 JUMPI PUSH1 0x0 DUP1 REVERT JUMPDEST PUSH1 0x1 PUSH1 0x1 PUSH1 0xA0 SHL SUB AND PUSH1 0x0 SWAP1 DUP2 MSTORE PUSH1 0x2 PUSH1 0x20 MSTORE PUSH1 0x40 SWAP1 KECCAK256 PUSH1 0x1 SWAP1 SSTORE JUMP JUMPDEST PUSH1 0x0 DUP1 DUP1 JUMPDEST PUSH1 0x3 SLOAD DUP2 LT ISZERO PUSH2 0x6A2 JUMPI DUP2 PUSH1 0x3 DUP3 DUP2 SLOAD DUP2 LT PUSH2 0x63F JUMPI PUSH4 0x4E487B71 PUSH1 0xE0 SHL PUSH1 0x0 MSTORE PUSH1 0x32 PUSH1 0x4 MSTORE PUSH1 0x24 PUSH1 0x0 REVERT JUMPDEST SWAP1 PUSH1 0x0 MSTORE PUSH1 0x20 PUSH1 0x0 KECCAK256 SWAP1 PUSH1 0x3 MUL ADD PUSH1 0x2 ADD SLOAD GT ISZERO PUSH2 0x690 JUMPI PUSH1 0x3 DUP2 DUP2 SLOAD DUP2 LT PUSH2 0x678 JUMPI PUSH4 0x4E487B71 PUSH1 0xE0 SHL PUSH1 0x0 MSTORE PUSH1 0x32 PUSH1 0x4 MSTORE PUSH1 0x24 PUSH1 0x0 REVERT JUMPDEST SWAP1 PUSH1 0x0 MSTORE PUSH1 0x20 PUSH1 0x0 KECCAK256 SWAP1 PUSH1 0x3 MUL ADD PUSH1 0x2 ADD SLOAD SWAP2 POP DUP1 SWAP3 POP JUMPDEST DUP1 PUSH2 0x69A DUP2 PUSH2 0x79B JUMP JUMPDEST SWAP2 POP POP PUSH2 0x613 JUMP JUMPDEST POP POP SWAP1 JUMP JUMPDEST PUSH1 0x0 DUP1 PUSH1 0x3 PUSH2 0x6B4 PUSH2 0x60E JUMP JUMPDEST DUP2 SLOAD DUP2 LT PUSH2 0x6D2 JUMPI PUSH4 0x4E487B71 PUSH1 0xE0 SHL PUSH1 0x0 MSTORE PUSH1 0x32 PUSH1 0x4 MSTORE PUSH1 0x24 PUSH1 0x0 REVERT JUMPDEST SWAP1 PUSH1 0x0 MSTORE PUSH1 0x20 PUSH1 0x0 KECCAK256 SWAP1 PUSH1 0x3 MUL ADD PUSH1 0x0 ADD SLOAD SWAP2 POP PUSH1 0x3 PUSH2 0x6F0 PUSH2 0x60E JUMP JUMPDEST DUP2 SLOAD DUP2 LT PUSH2 0x70E JUMPI PUSH4 0x4E487B71 PUSH1 0xE0 SHL PUSH1 0x0 MSTORE PUSH1 0x32 PUSH1 0x4 MSTORE PUSH1 0x24 PUSH1 0x0 REVERT JUMPDEST SWAP1 PUSH1 0x0 MSTORE PUSH1 0x20 PUSH1 0x0 KECCAK256 SWAP1 PUSH1 0x3 MUL ADD PUSH1 0x1 ADD SLOAD SWAP1 POP SWAP1 SWAP2 JUMP JUMPDEST PUSH1 0x0 PUSH1 0x20 DUP3 DUP5 SUB SLT ISZERO PUSH2 0x737 JUMPI DUP1 DUP2 REVERT JUMPDEST DUP2 CALLDATALOAD PUSH1 0x1 PUSH1 0x1 PUSH1 0xA0 SHL SUB DUP2 AND DUP2 EQ PUSH2 0x74D JUMPI DUP2 DUP3 REVERT JUMPDEST SWAP4 SWAP3 POP POP POP JUMP JUMPDEST PUSH1 0x0 PUSH1 0x20 DUP3 DUP5 SUB SLT ISZERO PUSH2 0x765 JUMPI DUP1 DUP2 REVERT JUMPDEST POP CALLDATALOAD SWAP2 SWAP1 POP JUMP JUMPDEST PUSH1 0x0 DUP3 NOT DUP3 GT ISZERO PUSH2 0x77F JUMPI PUSH2 0x77F PUSH2 0x7B6 JUMP JUMPDEST POP ADD SWAP1 JUMP JUMPDEST PUSH1 0x0 DUP3 DUP3 LT ISZERO PUSH2 0x796 JUMPI PUSH2 0x796 PUSH2 0x7B6 JUMP JUMPDEST POP SUB SWAP1 JUMP JUMPDEST PUSH1 0x0 PUSH1 0x0 NOT DUP3 EQ ISZERO PUSH2 0x7AF JUMPI PUSH2 0x7AF PUSH2 0x7B6 JUMP JUMPDEST POP PUSH1 0x1 ADD SWAP1 JUMP JUMPDEST PUSH4 0x4E487B71 PUSH1 0xE0 SHL PUSH1 0x0 MSTORE PUSH1 0x11 PUSH1 0x4 MSTORE PUSH1 0x24 PUSH1 0x0 REVERT INVALID LOG2 PUSH5 0x6970667358 0x22 SLT KECCAK256 OR ORIGIN JUMPDEST PUSH16 0x2AB3429D0BE66068DAF38FBCDB306CEF 0x2F DUP2 0xEB SWAP15 0x28 PUSH23 0x6E1C778F1EE464736F6C63430008040033000000000000 "
        },
        "gasEstimates": {
          "creation": {
            "codeDepositCost": "410000",
            "executionCost": "infinite",
            "totalCost": "infinite"
          },
          "external": {
            "ballotEndDate()": "1084",
            "candidates(uint256)": "3703",
            "chairperson()": "1052",
            "delegate(address)": "infinite",
            "expirationDate()": "1017",
            "giveRightToVote(address)": "23892",
            "vote(uint256)": "66214",
            "winnerDetails()": "infinite",
            "winningCandidate()": "infinite"
          }
        },
        "methodIdentifiers": {
          "ballotEndDate()": "87339020",
          "candidates(uint256)": "3477ee2e",
          "chairperson()": "2e4176cf",
          "delegate(address)": "5c19a95c",
          "expirationDate()": "8f620487",
          "giveRightToVote(address)": "9e7b8d61",
          "vote(uint256)": "0121b93f",
          "winnerDetails()": "ed8bddeb",
          "winningCandidate()": "d28178d7"
        }
      },
      "storageLayout": {
        "storage": [
          {
            "astId": 20,
            "contract": "contracts/YourContract.sol:PTBallot",
            "label": "chairperson",
            "offset": 0,
            "slot": "0",
            "type": "t_address"
          },
          {
            "astId": 22,
            "contract": "contracts/YourContract.sol:PTBallot",
            "label": "expirationDate",
            "offset": 0,
            "slot": "1",
            "type": "t_uint256"
          },
          {
            "astId": 27,
            "contract": "contracts/YourContract.sol:PTBallot",
            "label": "voters",
            "offset": 0,
            "slot": "2",
            "type": "t_mapping(t_address,t_struct(Voter)11_storage)"
          },
          {
            "astId": 31,
            "contract": "contracts/YourContract.sol:PTBallot",
            "label": "candidates",
            "offset": 0,
            "slot": "3",
            "type": "t_array(t_struct(Candidate)18_storage)dyn_storage"
          }
        ],
        "types": {
          "t_address": {
            "encoding": "inplace",
            "label": "address",
            "numberOfBytes": "20"
          },
          "t_array(t_struct(Candidate)18_storage)dyn_storage": {
            "base": "t_struct(Candidate)18_storage",
            "encoding": "dynamic_array",
            "label": "struct PTBallot.Candidate[]",
            "numberOfBytes": "32"
          },
          "t_bool": {
            "encoding": "inplace",
            "label": "bool",
            "numberOfBytes": "1"
          },
          "t_bytes32": {
            "encoding": "inplace",
            "label": "bytes32",
            "numberOfBytes": "32"
          },
          "t_mapping(t_address,t_struct(Voter)11_storage)": {
            "encoding": "mapping",
            "key": "t_address",
            "label": "mapping(address => struct PTBallot.Voter)",
            "numberOfBytes": "32",
            "value": "t_struct(Voter)11_storage"
          },
          "t_struct(Candidate)18_storage": {
            "encoding": "inplace",
            "label": "struct PTBallot.Candidate",
            "members": [
              {
                "astId": 13,
                "contract": "contracts/YourContract.sol:PTBallot",
                "label": "name",
                "offset": 0,
                "slot": "0",
                "type": "t_bytes32"
              },
              {
                "astId": 15,
                "contract": "contracts/YourContract.sol:PTBallot",
                "label": "party",
                "offset": 0,
                "slot": "1",
                "type": "t_bytes32"
              },
              {
                "astId": 17,
                "contract": "contracts/YourContract.sol:PTBallot",
                "label": "voteCount",
                "offset": 0,
                "slot": "2",
                "type": "t_uint256"
              }
            ],
            "numberOfBytes": "96"
          },
          "t_struct(Voter)11_storage": {
            "encoding": "inplace",
            "label": "struct PTBallot.Voter",
            "members": [
              {
                "astId": 4,
                "contract": "contracts/YourContract.sol:PTBallot",
                "label": "weight",
                "offset": 0,
                "slot": "0",
                "type": "t_uint256"
              },
              {
                "astId": 6,
                "contract": "contracts/YourContract.sol:PTBallot",
                "label": "voted",
                "offset": 0,
                "slot": "1",
                "type": "t_bool"
              },
              {
                "astId": 8,
                "contract": "contracts/YourContract.sol:PTBallot",
                "label": "delegate",
                "offset": 1,
                "slot": "1",
                "type": "t_address"
              },
              {
                "astId": 10,
                "contract": "contracts/YourContract.sol:PTBallot",
                "label": "vote",
                "offset": 0,
                "slot": "2",
                "type": "t_uint256"
              }
            ],
            "numberOfBytes": "96"
          },
          "t_uint256": {
            "encoding": "inplace",
            "label": "uint256",
            "numberOfBytes": "32"
          }
        }
      },
      "userdoc": {
        "kind": "user",
        "methods": {},
        "version": 1
      }
    }
  }
}