{
  "_format": "hh-sol-artifact-1",
  "contractName": "PTBallot",
  "sourceName": "contracts/YourContract.sol",
  "abi": [
    {
      "inputs": [
        {
          "internalType": "bytes32[]",
          "name": "candidateNames",
          "type": "bytes32[]"
        },
        {
          "internalType": "bytes32[]",
          "name": "candidateParties",
          "type": "bytes32[]"
        },
        {
          "internalType": "address",
          "name": "chairAddress",
          "type": "address"
        },
        {
          "internalType": "uint8",
          "name": "amountOfDays",
          "type": "uint8"
        }
      ],
      "stateMutability": "nonpayable",
      "type": "constructor"
    },
    {
      "inputs": [],
      "name": "ballotEndDate",
      "outputs": [
        {
          "internalType": "uint256",
          "name": "endDate_",
          "type": "uint256"
        }
      ],
      "stateMutability": "view",
      "type": "function"
    },
    {
      "inputs": [
        {
          "internalType": "uint256",
          "name": "",
          "type": "uint256"
        }
      ],
      "name": "candidates",
      "outputs": [
        {
          "internalType": "bytes32",
          "name": "name",
          "type": "bytes32"
        },
        {
          "internalType": "bytes32",
          "name": "party",
          "type": "bytes32"
        },
        {
          "internalType": "uint256",
          "name": "voteCount",
          "type": "uint256"
        }
      ],
      "stateMutability": "view",
      "type": "function"
    },
    {
      "inputs": [],
      "name": "chairperson",
      "outputs": [
        {
          "internalType": "address",
          "name": "",
          "type": "address"
        }
      ],
      "stateMutability": "view",
      "type": "function"
    },
    {
      "inputs": [
        {
          "internalType": "address",
          "name": "to",
          "type": "address"
        }
      ],
      "name": "delegate",
      "outputs": [],
      "stateMutability": "nonpayable",
      "type": "function"
    },
    {
      "inputs": [],
      "name": "expirationDate",
      "outputs": [
        {
          "internalType": "uint256",
          "name": "",
          "type": "uint256"
        }
      ],
      "stateMutability": "view",
      "type": "function"
    },
    {
      "inputs": [
        {
          "internalType": "address",
          "name": "voter",
          "type": "address"
        }
      ],
      "name": "giveRightToVote",
      "outputs": [],
      "stateMutability": "nonpayable",
      "type": "function"
    },
    {
      "inputs": [
        {
          "internalType": "uint256",
          "name": "candidate",
          "type": "uint256"
        }
      ],
      "name": "vote",
      "outputs": [],
      "stateMutability": "nonpayable",
      "type": "function"
    },
    {
      "inputs": [],
      "name": "winnerDetails",
      "outputs": [
        {
          "internalType": "bytes32",
          "name": "winnerName_",
          "type": "bytes32"
        },
        {
          "internalType": "bytes32",
          "name": "winnerParty_",
          "type": "bytes32"
        }
      ],
      "stateMutability": "view",
      "type": "function"
    },
    {
      "inputs": [],
      "name": "winningCandidate",
      "outputs": [
        {
          "internalType": "uint256",
          "name": "winningCandidate_",
          "type": "uint256"
        }
      ],
      "stateMutability": "view",
      "type": "function"
    }
  ],
  "bytecode": "0x60806040523480156200001157600080fd5b5060405162000b5e38038062000b5e833981016040819052620000349162000218565b82518451146200004357600080fd5b60ff81166200005157600080fd5b600080546001600160a01b0319166001600160a01b03841690811782558152600260205260409020600190556200008f60ff821662015180620002d4565b620000a09062ffffff1642620002b9565b60015560005b8451811015620001665760036040518060600160405280878481518110620000de57634e487b7160e01b600052603260045260246000fd5b602002602001015181526020018684815181106200010c57634e487b7160e01b600052603260045260246000fd5b602090810291909101810151825260009181018290528354600181810186559483529181902083516003909302019182558201519281019290925560400151600290910155806200015d8162000302565b915050620000a6565b50505050506200034c565b600082601f83011262000182578081fd5b815160206001600160401b0380831115620001a157620001a162000336565b8260051b604051601f19603f83011681018181108482111715620001c957620001c962000336565b60405284815283810192508684018288018501891015620001e8578687fd5b8692505b858310156200020c578051845292840192600192909201918401620001ec565b50979650505050505050565b600080600080608085870312156200022e578384fd5b84516001600160401b038082111562000245578586fd5b620002538883890162000171565b9550602087015191508082111562000269578485fd5b50620002788782880162000171565b604087015190945090506001600160a01b038116811462000297578283fd5b606086015190925060ff81168114620002ae578182fd5b939692955090935050565b60008219821115620002cf57620002cf62000320565b500190565b600062ffffff80831681851681830481118215151615620002f957620002f962000320565b02949350505050565b600060001982141562000319576200031962000320565b5060010190565b634e487b7160e01b600052601160045260246000fd5b634e487b7160e01b600052604160045260246000fd5b610802806200035c6000396000f3fe608060405234801561001057600080fd5b50600436106100935760003560e01c80638733902011610066578063873390201461011e5780638f620487146101345780639e7b8d611461013d578063d28178d714610150578063ed8bddeb1461015857600080fd5b80630121b93f146100985780632e4176cf146100ad5780633477ee2e146100dd5780635c19a95c1461010b575b600080fd5b6100ab6100a6366004610754565b610175565b005b6000546100c0906001600160a01b031681565b6040516001600160a01b0390911681526020015b60405180910390f35b6100f06100eb366004610754565b610286565b604080519384526020840192909252908201526060016100d4565b6100ab610119366004610726565b6102b9565b6101266104d4565b6040519081526020016100d4565b61012660015481565b6100ab61014b366004610726565b6104e9565b61012661060e565b6101606106a7565b604080519283526020830191909152016100d4565b600154421061018357600080fd5b33600090815260026020526040902080546101dc5760405162461bcd60e51b8152602060048201526014602482015273486173206e6f20726967687420746f20766f746560601b60448201526064015b60405180910390fd5b600181015460ff16156102225760405162461bcd60e51b815260206004820152600e60248201526d20b63932b0b23c903b37ba32b21760911b60448201526064016101d3565b6001818101805460ff19169091179055600281018290558054600380548490811061025d57634e487b7160e01b600052603260045260246000fd5b9060005260206000209060030201600201600082825461027d919061076c565b90915550505050565b6003818154811061029657600080fd5b600091825260209091206003909102018054600182015460029092015490925083565b60015442106102c757600080fd5b336000908152600260205260409020600181015460ff16156103205760405162461bcd60e51b81526020600482015260126024820152712cb7ba9030b63932b0b23c903b37ba32b21760711b60448201526064016101d3565b6001600160a01b0382163314156103795760405162461bcd60e51b815260206004820152601e60248201527f53656c662d64656c65676174696f6e20697320646973616c6c6f7765642e000060448201526064016101d3565b6001600160a01b038281166000908152600260205260409020600101546101009004161561041c576001600160a01b03918216600090815260026020526040902060010154610100900490911690338214156104175760405162461bcd60e51b815260206004820152601960248201527f466f756e64206c6f6f7020696e2064656c65676174696f6e2e0000000000000060448201526064016101d3565b610379565b600181810180546001600160a81b0319166101006001600160a01b03861690810291909117831790915560009081526002602052604090209081015460ff16156104b5578160000154600382600201548154811061048a57634e487b7160e01b600052603260045260246000fd5b906000526020600020906003020160020160008282546104aa919061076c565b909155506104cf9050565b8154815482906000906104c990849061076c565b90915550505b505050565b6000426001546104e49190610784565b905090565b60015442106104f757600080fd5b6000546001600160a01b031633146105625760405162461bcd60e51b815260206004820152602860248201527f4f6e6c79206368616972706572736f6e2063616e2067697665207269676874206044820152673a37903b37ba329760c11b60648201526084016101d3565b6001600160a01b03811660009081526002602052604090206001015460ff16156105ce5760405162461bcd60e51b815260206004820152601860248201527f54686520766f74657220616c726561647920766f7465642e000000000000000060448201526064016101d3565b6001600160a01b038116600090815260026020526040902054156105f157600080fd5b6001600160a01b0316600090815260026020526040902060019055565b600080805b6003548110156106a257816003828154811061063f57634e487b7160e01b600052603260045260246000fd5b9060005260206000209060030201600201541115610690576003818154811061067857634e487b7160e01b600052603260045260246000fd5b90600052602060002090600302016002015491508092505b8061069a8161079b565b915050610613565b505090565b60008060036106b461060e565b815481106106d257634e487b7160e01b600052603260045260246000fd5b906000526020600020906003020160000154915060036106f061060e565b8154811061070e57634e487b7160e01b600052603260045260246000fd5b90600052602060002090600302016001015490509091565b600060208284031215610737578081fd5b81356001600160a01b038116811461074d578182fd5b9392505050565b600060208284031215610765578081fd5b5035919050565b6000821982111561077f5761077f6107b6565b500190565b600082821015610796576107966107b6565b500390565b60006000198214156107af576107af6107b6565b5060010190565b634e487b7160e01b600052601160045260246000fdfea264697066735822122017325b6f2ab3429d0be66068daf38fbcdb306cef2f81eb9e28766e1c778f1ee464736f6c63430008040033",
  "linkReferences": {},
  "deployedLinkReferences": {}
}